:020000040800F2
:10000000B80400204901000813100008110F00086F
:100010001110000857020008031300080000000038
:100020000000000000000000000000002511000892
:1000300059020008000000001510000827110008F0
:100040006301000863010008630100086301000800
:1000500063010008630100086301000863010008F0
:1000600063010008630100086301000863010008E0
:1000700063010008630100086301000863010008D0
:1000800063010008630100086301000863010008C0
:1000900063010008630100086301000863010008B0
:1000A00063010008630100086301000863010008A0
:1000B0006301000863010008630100086301000890
:1000C0006301000863010008630100086301000880
:1000D0006301000863010008630100086301000870
:1000E0006301000863010008630100086301000860
:1000F0006301000863010008630100086301000850
:10010000630100086301000863010008630100083F
:10011000630100086301000863010008630100082F
:10012000630100086301000863010008630100081F
:10013000DFF810D000F06EF80048004711180008F2
:10014000AFF30080B8040020064880470648004707
:10015000FEE7FEE7FEE7FEE7FEE7FEE7FEE7FEE777
:10016000FEE7FEE78911000831010008202A04DBC0
:10017000203A21FA02F00021704721FA02F3D04020
:10018000C2F120029140084319467047D2B201E003
:1001900000F8012B491EFBD270470022F6E710B58C
:1001A00013460A4604461946FFF7F0FF204610BDE5
:1001B0002DE9F05F0546002092469B46884606469C
:1001C000814640241BE02846414647462246FFF729
:1001D000CDFF53465A46C01A914110D311461846D6
:1001E000224600F029F82D1A67EB01084F462246F7
:1001F0000120002100F020F817EB00094E41201EDD
:10020000A4F10104DFDC484631462A464346BDE8F6
:10021000F09F0000064C074D06E0E06840F0010347
:1002200094E8070098471034AC42F6D3FFF784FFF8
:100230002419000844190008202A04DB203A00FA97
:1002400002F1002070479140C2F1200320FA03F32D
:10025000194390407047FEE7704772B6FEE7000012
:100260002DE9F84FDFF8C8910024A9F1040B2346CB
:100270000F2709F1040AABF1040ED1E00125A540D6
:1002800006EA0502AA4276D1DFF8A8C14E68A6EBBD
:100290000C0866452BD00DDC032E34D005DC36B3BC
:1002A000012E19D0022E2FD11BE0112E16D0122EA6
:1002B0002AD119E0B8F5881F19D006DCB8F5803FBF
:1002C00015D0B8F5801F1FD111E0B8F5001F0ED072
:1002D000B8F5041F18D10AE0CB6815E0CB681B1DE8
:1002E00012E0CB6808330FE0CB680C330CE08B686E
:1002F0002BB1012B4FF0080303D0456104E0042328
:1003000002E0056100E00023FF2A01D8064601E073
:1003100000F104064FEA840501D9A5F12005D6F8BD
:10032000008007FA05FC28EA0C0803FA05F548EAFC
:100330000508C6F800804D68ED0070D53E4DAE69E9
:1003400046F00106AE61AD6924F0030605F0010533
:1003500000953A4D06EB050CDCF80850A607360F61
:1003600007FA06F825EA0805DFF8D480404503D1EE
:100370004FF0000825E052E0DFF8C880404502D188
:100380004FF001081DE0DFF8C080404502D14FF07A
:10039000020816E0DFF8B480404502D14FF00308B0
:1003A0000FE0DFF8AC80404502D14FF0040808E0D0
:1003B000DFF8A080404502D14FF0050801E04FF082
:1003C000060808FA06F848EA0508CCF808804D68DF
:1003D000D9F80060ED024D4601D5164300E0964382
:1003E0002E604D68DAF80060AD02554601D516431F
:1003F00000E096432E604D68DBF80060AD035D467B
:1004000001D5164300E096432E604D68DEF800608B
:10041000ED03754601D5164300E096432E60641C3B
:100420000A681646E2407FF429AFBDE8F88F000065
:1004300008040140000011100010024000000140BB
:1004400000080140000C0140001001400014014070
:1004500000180140001C01400AB101617047090405
:10046000FBE70000014880687047000000000020A2
:1004700002488168027811448160704700000020C2
:10048000074810B5016841F010010160032000F039
:1004900067F80F2000F006F800F024F8002010BDE7
:1004A0000020024070B50D4D04464FF47A71287853
:1004B000B1FBF0F00A490968B1FBF0F000F05AFC1A
:1004C00048B9102C07D200222146501E00F028F80F
:1004D00000206C6070BD012070BD00000000002095
:1004E0000C0000200C4808B5816941F001018161D0
:1004F000816901F001010091C16941F08051C16140
:10050000C06900F0805000900448416821F0E0612B
:1005100041F00071416008BD001002400000014040
:10052000F0B40E4B1B680C46C3F30223C3F107055E
:10053000042D00D90425191D072901D2002300E04C
:10054000DB1E012606FA05F1491E214099409E4016
:10055000761E16403143F0BC00F0CEBF0CED00E03B
:10056000064900F0070208684FF6FF03184040EA0A
:100570000220034A10430860704700000CED00E0C1
:100580000000FA052DE9F0470F46050061D0434E03
:10059000306800F00700B84209D2306820F0070048
:1005A00038433060306800F00700B84251D1286805
:1005B0003B4C810712D5400703D5606840F4E060EA
:1005C00060602878000703D5606840F46050606080
:1005D0006068A96820F0F000084360602878C007D0
:1005E00028D06868012810D02168022810D0890717
:1005F00000292EDA616821F0030101436160FFF7F1
:1006000031FF804641F288390DE021688903EFE728
:100610008901EDE7FFF726FFA0EB0801494502D964
:100620000320BDE8F0876068696800F00C00B0EB5B
:10063000810FEFD1306800F00700B8420BD9306865
:1006400020F0070038433060306800F00700B842FF
:1006500001D00120E5E72878400705D56068E96802
:1006600020F4E060084360602878000706D56068E1
:10067000296920F4605040EAC100606000F038F859
:100680006168084AC1F30311515CC840064908601B
:1006900006480068FFF706FF0020C2E7002002407E
:1006A000001002400A1900080C000020040000207D
:1006B0000448054900684968044AC1F30221515CB5
:1006C000C84070470C000020001002401A190008B2
:1006D0000448054900684968044AC1F3C221515CD5
:1006E000C84070470C000020001002401A19000892
:1006F0000E4A51680E4801F00C03042B11D0082B50
:100700000FD10C48C1F38343C903C05C0AD55168BB
:10071000084AC1F34041921E515C054A5043B0FB68
:10072000F1F0704704494843704700000010024050
:1007300000127A00FA18000800093D002DE9F84F70
:10074000040070D02078C04DC00749D06868C0F35D
:100750008100012807D06868C0F38100022809D110
:100760006868C00306D52868800339D5606800280A
:10077000E7D035E06068B0F5803F0BD010B1B0F540
:10078000A02F11D0286820F480302860286820F439
:10079000802002E0286840F480302860606890B1D2
:1007A000FFF760FE06460AE0286840F480202860D3
:1007B000F0E700BFFFF756FE801B642873D8286857
:1007C0008003F7D50CE0FFF74DFE064605E000BFBD
:1007D000FFF748FE801B6428F0D828688003F7D410
:1007E00020789A4E80074FF001094FF0000839D564
:1007F000686810F00C0F07D06868C0F38100022809
:1008000009D16868C00306D42868800714D5206918
:10081000012808D110E02069B0B1C6F80090FFF7B8
:1008200021FE074605E00AE1FFF71CFEC01B022877
:10083000C4D828688007F7D52868616920F0F800D7
:1008400040EAC10028600DE0C6F80080FFF70AFE0C
:10085000074604E0FFF706FEC01B022823D82868DD
:100860008007F7D4207800072CD57948A169D9B141
:10087000C0F80090FFF7F6FD074604E0FFF7F2FD31
:10088000C01B02280FD8686A8007F7D571484FF45B
:10089000FA510068B0FBF1F0009000BF0098411ED3
:1008A0000091FAD20EE080E0C0F80080FFF7DAFD98
:1008B000074604E0FFF7D6FDC01B022875D8686A1A
:1008C0008007F7D42078400760D5E8690027C0008A
:1008D00008D4E86940F08050E861E869012700F039
:1008E000805000905C480168C90513D401688346B4
:1008F00041F480710160FFF7B5FD824606E000BF5C
:10090000FFF7B0FDA0EB0A0064284ED8DBF800002A
:10091000C005F5D5E06801280AD008B1052813D034
:10092000286A20F001002862286A20F0040002E012
:10093000286A40F001002862E06841F2883B98B1E3
:10094000FFF790FD82460BE0286A40F00400286221
:10095000EEE700BFFFF786FDA0EB0A0159455AD824
:10096000286A8007F6D50CE0FFF77CFD824605E09B
:10097000FFF778FDA0EB0A0159454CD8286A80079B
:10098000F6D41FB1E86920F08050E861E06988B3CF
:100990006968C1F38101022944D00228C6F8608049
:1009A00004D0FFF75FFD044638E034E0FFF75AFD5E
:1009B000074604E0FFF756FDC01B02282BD8286825
:1009C0008001F7D4206AB0F5803F05D16868A1683E
:1009D00020F4003008436860D4E9080108436968DE
:1009E00021F4741108436860C6F86090FFF73AFD7F
:1009F000044606E025E000BFFFF734FD001B022897
:100A000009D828688001F7D51BE000BFFFF72AFD51
:100A1000001B022802D90320BDE8F88F2868800156
:100A2000F4D40EE00128F7D06868226A00F480311F
:100A3000914204D1616A00F47010884201D0012013
:100A4000EAE70020E8E70000001002400000424210
:100A5000800442420C0000200070004070B5040089
:100A600009D0606A002540B125616561A56294F8EE
:100A7000510040B10CE0012070BD6068B0F5827F8C
:100A8000F4D0E561F2E784F85050204600F040F8D9
:100A9000022084F851002068016821F040010160C3
:100AA000A088218900F4827001F404410843A189DF
:100AB00001F400610843217C01F002010843217D1B
:100AC00001F001010843218B01F400710843217FEB
:100AD00001F03801084394F8201001F08001084328
:100AE000218D01F40051084321680860A0690421A8
:100AF00001EA1040216848602068C16921F4006162
:100B0000C1616565012084F85100002070BD0000BE
:100B100030B585B0002400940194029403940068D9
:100B20001549884225D11548C16941F48041C16108
:100B3000C16901F480410491816941F0080181613A
:100B400080690F4D00F0080004904FF420400090A1
:100B5000022001900320039069462846FFF780FB9E
:100B60004FF48040CDE90004694628460294FFF71F
:100B700077FB05B030BD0000003800400010024097
:100B8000000C01402DE9FF4F81B01D4693460446FD
:100B90004FF001090E9EFFF765FC074694F85100DF
:100BA0006168012806D0B1F5827F3CD1A168C9BB3C
:100BB000042838D10298002871D0BBF1000FFBD077
:100BC000002DF9D094F8500001282CD04FF0010AE4
:100BD00084F850A094F85100042802D0052084F82D
:100BE00051004FF00008C4F85480C4F838B0E587CD
:100BF000A58702992163E586A586C4F84080C4F8DC
:100C0000448020680168490603D4016841F040012E
:100C10000160E068B0F5006F606808D0F0B3012DA6
:100C200049D081E0FFE7022005B0BDE8F08F08B1B0
:100C3000012D39D1206B21680088C860206B801C91
:100C40002063E08E401EE0862EE0206881688907E0
:100C50000FD5E18E69B1B9F1010F0AD1216B098875
:100C6000C160206B801C2063E08E401EE0864FF048
:100C7000000920688168C9070CD0E18F51B1C068B4
:100C8000A16B0880A06B801CA063E08F401EE087F2
:100C90004FF00109FFF7E6FBC01B01E00BE067E046
:100CA000B04201D3701C50D1E08E0028CDD1E08F2E
:100CB0000028CAD13EE0206B216800780873206BC1
:100CC000401C2063E08E401EE0862DE02068816895
:100CD00089070FD5E18E69B1B9F1010F0AD1216BF6
:100CE00009780173206B401C2063E08E401EE08673
:100CF0004FF0000920688168C9070CD0E18F51B11D
:100D0000C068A16B0870A06B401CA063E08F401E00
:100D1000E0874FF00109FFF7A5FBC01BB04202D3EB
:100D2000701C01D011E086B1E08E0028CED1E08F9A
:100D30000028CBD13A463146204600F06CF950B13C
:100D40002020606584F8508012E084F851A084F877
:100D50005080032068E7A06818B92068C1688068DF
:100D6000009084F851A084F85080606D0028F1D084
:100D7000012059E710B5401EB0F1807F01D301205A
:100D800010BD4FF0E02460610F21601700F0B4FB4C
:100D90000020A06107202061002010BD70B5040074
:100DA00004D094F84100002510B106E0012070BD88
:100DB00084F84050204600F023F8242084F84100B5
:100DC0002068C16821F40051C160204600F004FA97
:100DD0002068016921F4904101612068416921F096
:100DE0002A0141612068C16841F40051C160656415
:100DF000202084F8410084F842006563002070BD23
:100E000030B585B0002400940194029403940068E6
:100E10001449884224D11448816941F48041816198
:100E2000816901F480410491816941F0040181618B
:100E300080690E4D00F0040004904FF400700090A3
:100E4000022001900320039069462846FFF708FA24
:100E50002815CDE90004694628460294FFF700FAF8
:100E600005B030BD003801400010024000080140CC
:100E70002DE9F843044690F84100984616460D4681
:100E8000202802D00220BDE8F88385B17EB1002081
:100E90006064212084F84100FFF7E4FAA6848146CB
:100EA000E684A0682027B0F5805F02D003E001202F
:100EB000E9E7206910B12E4600250EE000260CE07F
:100EC0008021204600F0E4F9A8B9C6B116F8010B5C
:100ED00021684860E08C401EE084E08C4B464FF077
:100EE0000002CDF800800028EAD14FF040012046F2
:100EF00000F0CEF940B184F841700320C3E735F823
:100F0000020BC0F30800E3E784F841700020BAE761
:100F1000FEE7000070B586B000241C4800940194E0
:100F200002940394816941F010018161816901F0AB
:100F300010010491816941F008018161816901F02A
:100F400008010491816941F020018161816901F00A
:100F500020010491816941F00401816180690122CD
:100F600000F004000A4E1503049029463046FFF7AE
:100F700073FA01200095CDE901040220039069462F
:100F80003046FFF76DF906B070BD0000001002405A
:100F9000001401400F4810B50D4901604FF48271F3
:100FA000416000218160C1604FF400720161C0E9BD
:100FB0000512C1610162416281620A21C162FFF7CB
:100FC0004DFD002803D0BDE81040FFF746B910BD25
:100FD00000380040140000200C4810B50A49016098
:100FE0004FF4E1314160002181600C22C160C0E911
:100FF00004128161C161FFF7D1FE002803D0BDE872
:101000001040FFF72AB910BD003801406C000020E5
:10101000FEE7FEE77047F8B515460E460B46009210
:1010200004460122022100F021F840B93346002293
:1010300080212046009500F019F8002804D0606D4A
:1010400040F0200060650320F8BD000001B582B0CB
:101050004FF47A700090012301AA02A90248FFF719
:1010600091FD9DF804000EBD140000202DE9F84309
:101070001E46914688460446089DFFF7F3F9401B3B
:10108000351AFFF7EFF9074625480068C0F3CB3063
:10109000684338E0701C37D0FFF7E4F9C01BA84262
:1010A00003D215B1009860B32CE02068416821F0AC
:1010B000E00141606068B0F5827F0BD1A068B0F5B7
:1010C000004F02D0B0F5806F04D12068016821F094
:1010D00040010160A06AB0F5005F09D12068016895
:1010E00021F4005101602068016841F40051016061
:1010F000012084F85100002084F850000320BDE84E
:10110000F8830025401E00902068816838EA0100BD
:1011100004D000214945BDD10020F0E70121F9E7C5
:101120000C0000207047FFF7A3B930B58FB028211D
:101130006846FFF732F814210AA8FFF72EF80121BC
:101140000804CDE900100024029402250491CDE9A1
:1011500007504FF4E01009906846FFF7EFFA08B126
:1011600072B6FEE70F20CDE90A054FF48060CDE9A5
:101170000C4002210AA80E94FFF704FA002801D0BF
:1011800072B6FEE70FB030BD704701680C3151E810
:10119000002F22F4907241E80023002BF5D1016862
:1011A000143151E8002F22F0010241E80023002B06
:1011B000F5D1016B012909D101680C3151E8002FEB
:1011C00022F0100241E80023002BF5D1202180F805
:1011D000421000210163704770B504460068016940
:1011E000E26821F44051114301612169A06808437C
:1011F000616908432168CA6841F20C639A4302435B
:10120000CA6020684169A26921F4407111434161BB
:101210001E492068884202D1FFF75AFA01E0FFF721
:1012200047FA00EBC00101EB001260686421800006
:10123000B2FBF0F3B3FBF1F36FF018067343B2FBAC
:10124000F0F5B2FBF0F605EB8305322303EB051551
:10125000B5FBF1F5B6FBF1F605F0F00505EB06156B
:10126000B2FBF0F6B2FBF0F0B0FBF1F06FF0180259
:10127000504306EB800003EB0010B0FBF1F0216857
:1012800000F00F002844886070BD00000038014065
:101290002DE9F843984617460D460446089E24E07B
:1012A000701C22D0FFF7DEF8A0EB0800B0421AD87D
:1012B000CEB12068C168490717D5802D15D0402DC3
:1012C00013D00168C94309070FD40168002540689D
:1012D00000902046FFF759FF0820606484F84050D2
:1012E0000120BDE8F8830320FBE72068006835EAA9
:1012F000000004D00020B842D2D00020F1E7012045
:10130000F9E7FEE770B50C46054600F09FF800F0DF
:10131000CDF82804104E00EB04344FF48055002221
:1013200029463046FFF798F82020FFF78FFEC4F3D8
:101330000740FFF78BFEC4F30720FFF787FEE0B2FC
:10134000FFF784FE012229463046FFF785F8BDE805
:10135000704000F095B80000001401402DE9F04104
:10136000984614460E460746069D00F06FF800F0BA
:101370009DF8380400EB0630154F00EB04244FF4C1
:101380008056002231463846FFF766F80220FFF704
:101390005DFEC4F30740FFF759FEC4F30720FFF7D3
:1013A00055FEE0B2FFF752FE002405E018F80400F5
:1013B000FFF74CFE641CA4B2AC42F7D301223146C5
:1013C0003846FFF749F8BDE8F04100F059B8000091
:1013D000001401402DE9F0471C46DDE9089516464A
:1013E0000F46804600F032F84FEA084000EB073025
:1013F00000EB0620144F04444FF48056002231467F
:101400003846FFF729F80320FFF720FEC4F3074012
:10141000FFF71CFEC4F30720FFF718FEE0B2FFF74A
:1014200015FE002406E0FF20FFF710FE09F8040077
:10143000641CA4B2AC42F6D331463846BDE8F0474E
:101440000122FFF709B800000014014070B50B4DF0
:101450004FF48054002221462846FEF7FDFF052068
:10146000FFF7F4FDFF20FFF7F1FDC007FAD1214699
:101470002846BDE870400122FEF7EEBF001401408F
:1014800070B5094D4FF48054002221462846FEF7DE
:10149000E3FF0420FFF7DAFD21462846BDE870404F
:1014A0000122FEF7D9BF00000014014070B5094DBC
:1014B0004FF48054002221462846FEF7CDFF062037
:1014C000FFF7C4FD21462846BDE870400122FEF723
:1014D000C3BF0000001401400FB4054B10B503A9B1
:1014E000044A029800F028F810BC5DF814FB0000D4
:1014F000F9170008100000200907090E002804DB76
:1015000000F1E02080F80014704700F00F0000F1B7
:10151000E02080F8141D704702E008C8121F08C1BF
:10152000002AFAD170477047002001E001C1121F64
:10153000002AFBD1704700002DE9FF4F8DB09B467C
:101540000F460446002606E025280BD05A460F9980
:101550009047641C761C20780028F5D111B03046E5
:10156000BDE8F08F0025A8460122984900E0054318
:1015700014F8013F203B02FA03F00842F7D120782B
:101580002E2817D114F8010F45F004052A280ED093
:101590006FF02F022078A0F1300109290AD808EB5A
:1015A000880102EB410100EB0108641CF2E757F8E7
:1015B000048B641C20786C280DD004DC4C2812D0DD
:1015C0006A2811D104E074280DD07A280CD10AE0E1
:1015D00045F4001507E0617845F48015814202D199
:1015E000641C05F58015641C2078692844D008DC4B
:1015F0000028B3D0582867D063280FD0642808D1BA
:101600003AE0702865D0732812D075285AD078280F
:101610005AD05A460F999047761CD5E017F8040B1C
:101620008DF8000000208DF80100E946012003E05C
:1016300057F8049B4FF0FF3069074FF0000501D4C5
:101640000AE06D1C45450DDA8542FADB19F80510F4
:101650000029F6D106E06D1C8542FCDB19F8051067
:101660000029F8D12E4404E019F8010B5A460F99CD
:1016700090476D1EF8D2A7E00A200021CDE90801AD
:10168000C5F3025002280CD001CFC117021E71F120
:1016900000020CDA0023D0EB030063EB01012D22E2
:1016A00008E0FF1D27F00707F7E80201EEE72A052B
:1016B00004D52B228DF8282001223CE0EA073AD0FD
:1016C0002022F7E70A2000E010200021CDE90801E0
:1016D00007E01020002145F00405CDE908014FF096
:1016E0000808C5F30250022810D001CF00214FF0A6
:1016F000000A2A0720D52278702A0DD0DDE908C318
:101700008CF0100C5CEA030C0CD015E0FF1D27F0E8
:101710000707F7E80201EAE740228DF828204FF09A
:10172000010A0CE050EA010306D030238DF828307E
:101730008DF82920022292462278582A04D024A229
:101740000DF120090B9209E026A2F9E7DDE9082353
:10175000FEF72EFD0B9B9B5C09F8013D50EA010250
:10176000F4D1ADEB090020300890680701D44FF0A8
:1017700001080899884503DD0898A8EB000000E0FF
:1017800000208046002506E00AA85A46405D0F99D1
:1017900090476D1C761C5545F6DB04E030205A4618
:1017A0000F999047761CB8F10001A8F10108F5DC0B
:1017B00005E019F8010B5A460F999047761C0899D5
:1017C000481E08900029F4DC641CC4E609280100C6
:1017D00030313233343536373839616263646566A7
:1017E0000000000030313233343536373839414269
:1017F000434445460000000013B54FF0FF3301227B
:1018000069460248FFF734FB00981CBD6C000020BD
:1018100088B0FEF735FEFFF788FCFFF77BFBFFF78C
:10182000DBFBFFF7B7FB00210846FFF76BFD00224B
:101830000A2411A3114610460094FFF78FFD02A859
:101840000023CDE900041A4619461846FFF7C2FDE9
:1018500002A90CA0FFF740FE06A905A800F020F899
:101860009DF8141008A0FFF737FEBDF8181009A066
:10187000FFF732FEFEE7000068656C6C6F776F72F1
:101880006C64000025730A006D69643A2025237892
:101890000A0000006469643A202523780A000000E9
:1018A0002DE9F041134F0C4605464FF480560022B7
:1018B00031463846FEF7D0FD9F20FFF7C7FB9F203B
:1018C000FFF7C4FB287000202080FF20FFF7BEFB3D
:1018D000218841EA00202080FF20FFF7B7FB218804
:1018E0000843208031463846BDE8F0410122FEF72A
:1018F000B3BD000000140140010202030405060705
:1019000008090A0B0C0D0E0F10100000000000005B
:10191000000001020304060708090000000001029C
:101920000304000044190008000000201400000017
:10193000181500085819000814000020A40400001D
:101940002815000801000000100000000000000041
:0819500000127A000000000003
:0400000508000131BD
:00000001FF
