:020000040800F2
:10000000B0040020490100081F100008590F000823
:100010001D100008E10100080312000800000000A4
:100020000000000000000000000000002310000895
:100030002902000800000000211000082510000817
:100040006301000863010008630100086301000800
:1000500063010008630100086301000863010008F0
:10006000630100086301000863010008E50100085E
:1000700063010008630100086301000863010008D0
:1000800063010008630100086301000863010008C0
:1000900063010008630100086301000863010008B0
:1000A00063010008630100086301000863010008A0
:1000B0006301000863010008630100086301000890
:1000C0006301000863010008630100086301000880
:1000D0006301000863010008630100086301000870
:1000E0006301000863010008630100086301000860
:1000F0006301000863010008630100086301000850
:10010000630100086301000863010008630100083F
:10011000630100086301000863010008630100082F
:10012000630100086301000863010008630100081F
:10013000DFF810D000F042F800480047D113000863
:10014000AFF30080B004002006488047064800470F
:10015000FEE7FEE7FEE7FEE7FEE7FEE7FEE7FEE777
:10016000FEE7FEE78710000831010008D2B201E087
:1001700000F8012B491EFBD270470022F6E710B5AC
:1001800013460A4604461946FFF7F0FF204610BD05
:1001900030B50B46014600202022012409E021FA57
:1001A00002F59D4205D303FA02F5491B04FA02F554
:1001B0002844151EA2F10102F1DC30BD064C074DAA
:1001C00006E0E06840F0010394E807009847103427
:1001D000AC42F6D3FFF7B0FF7C1400089C14000873
:1001E000FEE70000014800F023B8000024000020D2
:1001F00030B590F840500124AC40C56B6C60046889
:1002000063604368102B036803D099600068C26084
:1002100030BD9A600068C16030BD00000149012016
:100220000870704700000020704772B6FEE70000BB
:100230002DE9F05FC16B0A6801680B68046C4FF030
:10024000040808FA04F8844D844E854FDFF814C280
:10025000DFF81492DFF814A2DFF814B2DFF814E22A
:1002600018EA020F65D05FEA437862D50A68920601
:1002700003D40A6822F004020A60DFF8F0814FF428
:100280008062016808F1140813011402414524D961
:10029000A9420DD0B1420FD0B9421AD0614515D054
:1002A000494515D0514501D1120312E0594501D1FC
:1002B00004220EE0714501D140220AE06D4D143553
:1002C000A94206D06B4A2832914201D11A4600E079
:1002D00022466749091F0A6029E0A94213D0B142AA
:1002E00015D0B94220D061451BD049451BD051459E
:1002F00002D14FF4800217E0414502D14FF08062F5
:1003000012E0594501D104220EE0714501D140228D
:100310000AE0584D1435A94206D0564A2832914277
:1003200001D11A4600E022464B4908394A60C16AA9
:1003300071E04FF0020808FA04F818EA020F70D0D2
:100340005FEA83786DD50A68920606D40A6822F0BF
:100350000A020A60012180F82110DFF810814FF4B1
:100360000072016808F1140813011402414524D9F0
:10037000A9420DD0B1420FD0B9421AD0614515D073
:10038000494515D0514501D1120312E0594501D11B
:1003900002220EE0714501D120220AE0354D1435CC
:1003A000A94206D0334A2832914201D11A4600E0D0
:1003B00022462F49091F0A6029E0A94213D0B14201
:1003C00015D0B94220D061451BD049451BD05145BD
:1003D00002D14FF4001217E0414502D14FF00072F4
:1003E00012E0594501D102220EE0714501D12022CF
:1003F0000AE0204D1435A94206D01E4A2832914207
:1004000001D11A4600E02246134908394A6000210A
:1004100080F82010816A00291CD0BDE8F05F0847F1
:10042000FFE70825A540154214D01A0712D50A681F
:1004300022F00E020A6090F84020C36B012101FAFD
:1004400002F25A60816380F82110002180F82010A8
:10045000016BE0E7BDE8F09F080002401C0002408D
:100460003000024044000240580002406C0002404C
:10047000080402401C04024030B560B11A4B026807
:1004800014219A4209D2194B1344B3FBF1F18900AC
:10049000016417490AE0012030BD134B5B4213444D
:1004A000B3FBF1F1890001640F490839C1630221EE
:1004B00080F82110136843F6F0718B43F0E90114C2
:1004C0002143D0E902452C43214304692143446977
:1004D00021438469214319431160002141630122B2
:1004E00042770177084630BD08040240F8FFFDBF9F
:1004F0000000024010B590F820400023012C07D0E6
:10050000012480F8204090F82140012C02D008E01E
:10051000022010BD59B101290BD002290BD00329AB
:100520000BD00123002180F82010184610BD8262F4
:10053000F8E7C262F6E70263F4E74263F2E770B5F8
:10054000044690F82000002501280CD0012084F8F2
:10055000200094F821600020012E06D084F82000AD
:100560000225284670BD022070BD022684F8216055
:10057000A0632068066826F0010606602046FFF7A3
:1005800037FEE06A00282068016802D041F00E01C1
:1005900006E021F0040101602068016841F00A01D1
:1005A00001602068016841F001010160D9E70000A5
:1005B0002DE9F84FDFF8C8910024A9F1040B234678
:1005C0000F2709F1040AABF1040ED1E00125A54083
:1005D00006EA0502AA4276D1DFF8A8C14E68A6EB6A
:1005E0000C0866452BD00DDC032E34D005DC36B369
:1005F000012E19D0022E2FD11BE0112E16D0122E53
:100600002AD119E0B8F5881F19D006DCB8F5803F6B
:1006100015D0B8F5801F1FD111E0B8F5001F0ED01E
:10062000B8F5041F18D10AE0CB6815E0CB681B1D94
:1006300012E0CB6808330FE0CB680C330CE08B681A
:100640002BB1012B4FF0080303D0456104E00423D4
:1006500002E0056100E00023FF2A01D8064601E020
:1006600000F104064FEA840501D9A5F12005D6F86A
:10067000008007FA05FC28EA0C0803FA05F548EAA9
:100680000508C6F800804D68ED0070D53E4DAE6996
:1006900046F00106AE61AD6924F0030605F00105E0
:1006A00000953A4D06EB050CDCF80850A607360F0E
:1006B00007FA06F825EA0805DFF8D480404503D19B
:1006C0004FF0000825E052E0DFF8C880404502D135
:1006D0004FF001081DE0DFF8C080404502D14FF027
:1006E000020816E0DFF8B480404502D14FF003085D
:1006F0000FE0DFF8AC80404502D14FF0040808E07D
:10070000DFF8A080404502D14FF0050801E04FF02E
:10071000060808FA06F848EA0508CCF808804D688B
:10072000D9F80060ED024D4601D5164300E096432E
:100730002E604D68DAF80060AD02554601D51643CB
:1007400000E096432E604D68DBF80060AD035D4627
:1007500001D5164300E096432E604D68DEF8006038
:10076000ED03754601D5164300E096432E60641CE8
:100770000A681646E2407FF429AFBDE8F88F000012
:100780000804014000001110001002400000014068
:1007900000080140000C014000100140001401401D
:1007A00000180140001C01400148806870470000AB
:1007B000040000200248816802781144816070477B
:1007C00004000020074810B5016841F010010160E5
:1007D000032000F075F80F2000F006F800F024F870
:1007E000002010BD0020024070B50D4D04464FF4AE
:1007F0007A712878B1FBF0F00A490968B1FBF0F092
:1008000000F0DCFA48B9102C07D200222146501E15
:1008100000F036F800206C6070BD012070BD000053
:1008200004000020100000200C4808B5816941F048
:1008300001018161816901F001010091C16941F00B
:100840008051C161C06900F0805000900448416847
:1008500021F0E06141F00071416008BD00100240EC
:1008600000000140002809DB00F01F020121914037
:100870004009800000F1E020C0F80011704700003E
:10088000F0B40E4B1B680C46C3F30223C3F10705FB
:10089000042D00D90425191D072901D2002300E0E9
:1008A000DB1E012606FA05F1491E214099409E40B3
:1008B000761E16403143F0BC00F0B4BC0CED00E0F5
:1008C000064900F0070208684FF6FF03184040EAA7
:1008D0000220034A10430860704700000CED00E05E
:1008E0000000FA052DE9F0470F46050061D0434EA0
:1008F000306800F00700B84209D2306820F00700E5
:1009000038433060306800F00700B84251D12868A1
:100910003B4C810712D5400703D5606840F4E06086
:1009200060602878000703D5606840F4605060601C
:100930006068A96820F0F000084360602878C0076C
:1009400028D06868012810D02168022810D08907B3
:1009500000292EDA616821F0030101436160FFF78D
:1009600023FF804641F288390DE021688903EFE7D3
:100970008901EDE7FFF718FFA0EB0801494502D90F
:100980000320BDE8F0876068696800F00C00B0EBF8
:10099000810FEFD1306800F00700B8420BD9306802
:1009A00020F0070038433060306800F00700B8429C
:1009B00001D00120E5E72878400705D56068E9689F
:1009C00020F4E060084360602878000706D560687E
:1009D000296920F4605040EAC100606000F038F8F6
:1009E0006168084AC1F30311515CC84006490860B8
:1009F00006480068FFF7F8FE0020C2E7002002402A
:100A000000100240641400081000002008000020BC
:100A10000448054900684968044AC1F30221515C51
:100A2000C8407047100000200010024074140008F5
:100A30000448054900684968044AC1F3C221515C71
:100A4000C8407047100000200010024074140008D5
:100A50000E4A51680E4801F00C03042B11D0082BEC
:100A60000FD10C48C1F38343C903C05C0AD5516858
:100A7000084AC1F34041921E515C054A5043B0FB05
:100A8000F1F07047044948437047000000100240ED
:100A900000127A005414000800093D002DE9F84FB7
:100AA000040070D02078C04DC00749D06868C0F3FA
:100AB0008100012807D06868C0F38100022809D1AD
:100AC0006868C00306D52868800339D560680028A7
:100AD000E7D035E06068B0F5803F0BD010B1B0F5DD
:100AE000A02F11D0286820F480302860286820F4D6
:100AF000802002E0286840F480302860606890B16F
:100B0000FFF752FE06460AE0286840F4802028607D
:100B1000F0E700BFFFF748FE801B642873D8286801
:100B20008003F7D50CE0FFF73FFE064605E000BF67
:100B3000FFF73AFE801B6428F0D828688003F7D4BA
:100B400020789A4E80074FF001094FF0000839D500
:100B5000686810F00C0F07D06868C0F381000228A5
:100B600009D16868C00306D42868800714D52069B5
:100B7000012808D110E02069B0B1C6F80090FFF755
:100B800013FE074605E00AE1FFF70EFEC01B022830
:100B9000C4D828688007F7D52868616920F0F80074
:100BA00040EAC10028600DE0C6F80080FFF7FCFDB8
:100BB000074604E0FFF7F8FDC01B022823D8286889
:100BC0008007F7D4207800072CD57948A169D9B1DE
:100BD000C0F80090FFF7E8FD074604E0FFF7E4FDEA
:100BE000C01B02280FD8686A8007F7D571484FF4F8
:100BF000FA510068B0FBF1F0009000BF0098411E70
:100C00000091FAD20EE080E0C0F80080FFF7CCFD42
:100C1000074604E0FFF7C8FDC01B022875D8686AC4
:100C20008007F7D42078400760D5E8690027C00026
:100C300008D4E86940F08050E861E869012700F0D5
:100C4000805000905C480168C90513D40168834650
:100C500041F480710160FFF7A7FD824606E000BF06
:100C6000FFF7A2FDA0EB0A0064284ED8DBF80000D5
:100C7000C005F5D5E06801280AD008B1052813D0D1
:100C8000286A20F001002862286A20F0040002E0AF
:100C9000286A40F001002862E06841F2883B98B180
:100CA000FFF782FD82460BE0286A40F004002862CC
:100CB000EEE700BFFFF778FDA0EB0A0159455AD8CF
:100CC000286A8007F6D50CE0FFF76EFD824605E046
:100CD000FFF76AFDA0EB0A0159454CD8286A800746
:100CE000F6D41FB1E86920F08050E861E06988B36C
:100CF0006968C1F38101022944D00228C6F86080E6
:100D000004D0FFF751FD044638E034E0FFF74CFD16
:100D1000074604E0FFF748FDC01B02282BD82868CF
:100D20008001F7D4206AB0F5803F05D16868A168DA
:100D300020F4003008436860D4E90801084369687A
:100D400021F4741108436860C6F86090FFF72CFD29
:100D5000044606E025E000BFFFF726FD001B022841
:100D600009D828688001F7D51BE000BFFFF71CFDFC
:100D7000001B022802D90320BDE8F88F28688001F3
:100D8000F4D40EE00128F7D06868226A00F48031BC
:100D9000914204D1616A00F47010884201D00120B0
:100DA000EAE70020E8E700000010024000004242AD
:100DB00080044242100000200070004010B5401E28
:100DC000B0F1807F01D3012010BD4FF0E0246061BD
:100DD0000F21601700F026FA0020A0610720206193
:100DE000002010BD70B5040004D094F84100002527
:100DF00010B106E0012070BD84F84050204600F09C
:100E000023F8242084F841002068C16821F40051AF
:100E1000C160204600F060F92068016921F490412A
:100E200001612068416921F02A0141612068C1689F
:100E300041F40051C1606564202084F8410084F8C9
:100E400042006563002070BD30B585B00024009479
:100E500001940294039400681449884224D11448F0
:100E6000816941F480418161816901F4804104918B
:100E7000816941F00401816180690E4D00F0040038
:100E800004904FF400700090022001900320039022
:100E900069462846FFF78CFB2815CDE90004694612
:100EA00028460294FFF784FB05B030BD00380140AE
:100EB00000100240000801402DE9F843044690F874
:100EC0004100984616460D46202802D00220BDE873
:100ED000F88385B17EB100206064212084F8410050
:100EE000FFF762FCA6848146E684A0682027B0F55F
:100EF000805F02D003E00120E9E7206910B12E46AF
:100F000000250EE000260CE08021204600F040F98C
:100F1000A8B9C6B116F8010B21684860E08C401EE4
:100F2000E084E08C4B464FF00002CDF800800028B2
:100F3000EAD14FF04001204600F02AF940B184F890
:100F400041700320C3E735F8020BC0F30800E3E764
:100F500084F841700020BAE7FEE70000134808B5A6
:100F6000416941F0010141614069114900F001000E
:100F70000090104801604FF4804141604021816041
:100F80008021C1600021016141618161C161FFF780
:100F900073FA08B1FFF749F9002211460B20FFF759
:100FA0006FFCBDE808400B20FFF75CBC001002405E
:100FB0000800024024000020094808B5816941F07A
:100FC00010018161816901F010010091816941F096
:100FD00004018161806900F00400009008BD0000F8
:100FE000001002400C4810B50A4901604FF4E1318D
:100FF0004160002181600C22C160C0E9041281615E
:10100000C161FFF7EFFE002803D0BDE81040FFF7F5
:101010000CB910BD0038014068000020FEE7FEE773
:1010200070477047FFF7C6BB30B58FB028216846C0
:10103000FFF7A3F814210AA8FFF79FF8012108047D
:10104000CDE900100024029402250491CDE9075057
:101050004FF4E01009906846FFF720FD08B172B622
:10106000FEE70F20CDE90A054FF48060CDE90C4082
:1010700002210AA80E94FFF735FC002801D072B6B1
:10108000FEE70FB030BD704701680C3151E8002F0A
:1010900022F4907241E80023002BF5D1016814314D
:1010A00051E8002F22F0010241E80023002BF5D186
:1010B000016B012909D101680C3151E8002F22F0A0
:1010C000100241E80023002BF5D1202180F84210C6
:1010D000002101637047000070B504460068016993
:1010E000E26821F44051114301612169A06808437D
:1010F000616908432168CA6841F20C639A4302435C
:10110000CA6020684169A26921F4407111434161BC
:101110001E492068884202D1FFF78AFC01E0FFF7F0
:1011200077FC00EBC00101EB0012606864218000D5
:10113000B2FBF0F3B3FBF1F36FF018067343B2FBAD
:10114000F0F5B2FBF0F605EB8305322303EB051552
:10115000B5FBF1F5B6FBF1F605F0F00505EB06156C
:10116000B2FBF0F6B2FBF0F0B0FBF1F06FF018025A
:10117000504306EB800003EB0010B0FBF1F0216858
:1011800000F00F002844886070BD00000038014066
:101190002DE9F843984617460D460446089E24E07C
:1011A000701C22D0FFF700FBA0EB0800B0421AD859
:1011B000CEB12068C168490717D5802D15D0402DC4
:1011C00013D00168C94309070FD40168002540689E
:1011D00000902046FFF758FF0820606484F84050D4
:1011E0000120BDE8F8830320FBE72068006835EAAA
:1011F000000004D00020B842D2D00020F1E7012046
:10120000F9E7FEE70FB4054B10B503A9044A0298AD
:1012100000F028F810BC5DF814FB0000B9130008BA
:10122000140000200907090E002804DB00F1E0206B
:1012300080F80014704700F00F0000F1E02080F803
:10124000141D704702E008C8121F08C1002AFAD115
:1012500070477047002001E001C1121F002AFBD136
:10126000704700002DE9FF4F89B09B4604460025DA
:1012700006E025280BD05A460B999047641C6D1C3C
:1012800020780028F5D10DB02846BDE8F08F002762
:10129000B8460122474900E0074314F8013F203BCC
:1012A00002FA03F00842F7D120782E2819D114F859
:1012B000010F47F004072A280ED06FF02F02207884
:1012C000A0F1300109290CD808EB880102EB41019B
:1012D00000EB0108641CF2E70A98641C50F8048BC8
:1012E0000A9020780028CED0642808D0692806D03B
:1012F00075281ED05A460B9990476D1C58E00A99E4
:101300004FF00A0901C90A91002802DA40422D2152
:1013100002E0390504D52B218DF82010012103E0CE
:10132000F90704D02021F7E78A4608AE0DE0002136
:10133000FAE70A994FF00A0901C90A91F7E7494605
:10134000FEF726FF303106F8011D0028F7D1ADEB7E
:10135000060000F12009780701D44FF00108C845C4
:1013600002DDA8EB090000E000208046002706E02F
:1013700008A85A46C05D0B9990476D1C7F1C5745C5
:10138000F6DB04E030205A460B9990476D1CB8F10B
:101390000001A8F10108F5DC05E016F8010B5A463A
:1013A0000B9990476D1CB9F10001A9F10109F4DC1A
:1013B000641C65E70928010013B54FF0FF330122D3
:1013C00069460248FFF778FD00981CBD68000020C0
:1013D000FFF7F8F9FFF728FEFFF7EEFDFFF7BEFD78
:1013E000FFF700FE0E4A00210E48FFF783F80A239C
:1013F0000D4A0E490B48FFF7A2F80DA0FFF702FFB8
:10140000094E0F4D002728780028FCD000240DA09D
:10141000315DFFF7F7FE641C0A2CF8DB2F70F2E752
:101420001D020008240000201800002048140008B5
:1014300048656C6C6F20576F726C64210D0A000058
:1014400000000020256420000102030405060708AF
:10145000090A010202030405060708090A0B0C0D1C
:101460000E0F101000000000000000000102030435
:101470000607080900000000010203049C1400088C
:10148000000000201800000044120008B4140008F6
:10149000180000209804000054120008000000000A
:1014A00001000000100000000000000000127A009F
:0414B0000000000038
:0400000508000131BD
:00000001FF
